:020000040000FA
:0400000012EF09F002
:10080000004F4D4720504C5A5A5A002564200A0D7B
:1008100000001EC036F01FC037F020C038F021C0E5
:1008200039F022C03AF023C03BF024C03CF025C090
:100830003DF03DAE02D0010E01D0000E346E356A9F
:1008400034503510D8B410D03D1E3C1E3B1E3A1E0D
:10085000391E381E371E366C000E372238223922D8
:100860003A223B223C223D22000169AF6A9369BFD4
:1008700005D0695108E16805D8B005D0000E316E89
:10088000010E306E04D068C030F069C031F066C02F
:1008900032F067C033F034503510D8A402D06AA5C6
:1008A00003D03206D8A03306000E3F6E1F0E3E6EF8
:1008B0006C0E3E24D96E000E3F20DA6E000EDF6E05
:1008C0007CD03E06D8A03F066C0E3E24D96E000EAA
:1008D0003F20DA6E36C001F037C002F038C003F0B6
:1008E00039C004F03AC005F03BC006F03CC007F048
:1008F0003DC008F00A0E096E000E0A6E000E0B6E67
:10090000000E0C6E000E0D6E000E0E6E000E0F6EC1
:10091000000E106E9BEC06F001C026F002C027F01E
:1009200003C028F004C029F005C02AF006C02BF04F
:1009300007C02CF008C02DF026C013F028C014F01A
:10094000F9EC08F01350300FDF6E3006D8A03106F6
:100950003206D8A0330636C001F037C002F038C0E6
:1009600003F039C004F03AC005F03BC006F03CC0CB
:1009700007F03DC008F00A0E096E000E0A6E000E68
:100980000B6E000E0C6E000E0D6E000E0E6E000E45
:100990000F6E000E106EF7EC05F001C036F002C0CD
:1009A00037F003C038F004C039F005C03AF006C093
:1009B0003BF007C03CF008C03DF03FBE20D03F50A8
:1009C00003E13E04D8A01BD0365037103810391040
:1009D0003A103B103C103D10D8A473D731BE05D05F
:1009E000315002E13004D8B06CD733BE08D0335058
:1009F00003E13204D8A003D000016AB362D73450B7
:100A00003510D8A403D000016AA517D03E06D8A09F
:100A10003F0634503510D8A404D0000E2F6E2B0E94
:100A200003D0000E2F6E2D0E2E6E6C0E3E24D96E4E
:100A3000000E3F20DA6E2EC0DFFF1CC011F01DC07B
:100A400012F06C0E3E24136E000E3F20146E32C066
:100A500015F033C016F07DEC07F011C01CF012C089
:100A60001DF0120042C0D9FF43C0DAFFDECFF6FF0F
:100A7000DDCFF7FF0800F550250AD8A49AD042C070
:100A8000D9FF43C0DAFFDE2A000EDD22000E00018E
:100A9000676F000E666F66C06AF067C06BF06869CA
:100AA000696942C0D9FF43C0DAFFDECFF6FFDDCF70
:100AB000F7FF0800F550640AD8B40DD042C0D9FF42
:100AC00043C0DAFFDECFF6FFDDCFF7FF0800F550B9
:100AD000690AD8A43FD042C0D9FF43C0DAFFDE2A5A
:100AE000000EDD2244C0D9FF45C0DAFFDFCF46F05B
:100AF000020EDE26DFCF47F0000EDD2246C0D9FF12
:100B000047C0DAFFDECF48F0DDCF49F0000E49BE26
:100B1000FF0E4A6E4B6E4C6E4D6E4E6E4F6E40C069
:100B20001CF041C01DF048C01EF049C01FF04AC073
:100B300020F04BC021F04CC022F04DC023F04EC03D
:100B400024F04FC025F009EC04F01CC040F01DC09B
:100B500041F0120042C0D9FF43C0DAFFDECFF6FFFA
:100B6000DDCFF7FF0800F550250AD8A416D042C003
:100B7000D9FF43C0DAFFDE2A000EDD22000E026E2E
:100B8000250E016E40C003F041C004F02DEC07F0CB
:100B9000000E416E010E406E120042C0D9FF43C0EC
:100BA000DAFFDE2A000EDD22000E416E000E406EDE
:100BB000120042C0D9FF43C0DAFFDECFF6FFDDCF1F
:100BC000F7FF0800F550016E026A40C003F041C013
:100BD00004F02DEC07F042C0D9FF43C0DAFFDE2A53
:100BE000000EDD22000E416E010E406E1200000E5E
:100BF000126E10AE12D0101E0F1E0E1E0D1E0C1EF9
:100C00000B1E0A1E096C000E0A220B220C220D225A
:100C10000E220F221022010E126E08AE12D0081EF4
:100C2000071E061E051E041E031E021E016C000E7A
:100C30000222032204220522062207220822010E94
:100C4000121A20EE13F0070EDE6AE806FDE20950E4
:100C50000A100B100C100D100E100F101010D8B43D
:100C600046D0010E116E0AD0D89009360A360B36DE
:100C70000C360D360E360F361036112A10AEF4D75C
:100C8000D8901336143615361636173618361936E8
:100C90001A360950015C0A5002580B5003580C5088
:100CA00004580D5005580E5006580F500758105054
:100CB0000858D8A011D00950015E0A50025A0B50B2
:100CC000035A0C50045A0D50055A0E50065A0F5034
:100CD000075A1050085A1380D89010320F320E3233
:100CE0000D320C320B320A320932112EC9D7125092
:100CF000D8B410D01A1E191E181E171E161E151E47
:100D0000141E136C000E142215221622172218220C
:100D100019221A2213C001F014C002F015C003F00A
:100D200016C004F017C005F018C006F019C007F08F
:100D30001AC008F01200000E126E08AE12D0081E83
:100D4000071E061E051E041E031E021E016C000E59
:100D50000222032204220522062207220822010E73
:100D6000126E10AE10D0101E0F1E0E1E0D1E0C1E89
:100D70000B1E0A1E096C000E0A220B220C220D22E9
:100D80000E220F22102209500A100B100C100D1009
:100D90000E100F101010D8B43CD0010E116E0AD0F6
:100DA000D89009360A360B360C360D360E360F360D
:100DB0001036112A10AEF4D70950015C0A500258BF
:100DC0000B5003580C5004580D5005580E5006583F
:100DD0000F50075810500858D8A010D00950015E85
:100DE0000A50025A0B50035A0C50045A0D50055A1F
:100DF0000E50065A0F50075A1050085AD890103209
:100E00000F320E320D320C320B320A320932112EF1
:100E1000D3D71250D8B410D0081E071E061E051EC8
:100E2000041E031E021E016C000E02220322042275
:100E3000052206220722082201C001F002C002F0AA
:100E400003C003F004C004F005C005F006C006F0BE
:100E500007C007F008C008F0120003500410D8B40F
:100E600004D003500410D8A404D0015040EC09F081
:100E7000120020EE04F00350D9260450DA22DE508E
:100E8000DE10D8B416D020EE04F00350D92604505A
:100E9000DA2210EE02F00350E1260450E222DE5086
:100EA000E65CE650800A096EDE50800A0958D8B028
:100EB000120020EE02F00350D9260450DA22DECFD1
:100EC00005F0DDCF06F003C0D9FF04C0DAFFDECFA6
:100ED00007F0DDCF08F005500724D96E0650082032
:100EE000DA6E01C0DFFF20EE02F00350D926045075
:100EF000DA22DE2A000EDD22120000016AA10AD0E9
:100F000013C00AF014C00BF011C00CF012C00DF0A9
:100F1000DDEC08F016BE05D015C01AF016C01BF0A7
:100F200004D0000E1B6E000E1A6E000E196E000E1D
:100F3000186E0CD0000E026E200E016E11C003F070
:100F400012C004F02DEC07F0184A192A1A50185C48
:100F50001950800A176E1B50800A1758D8A0EAD77C
:100F600000016AB10AD013C00AF014C00BF011C01E
:100F70000CF012C00DF0DDEC08F013C001F014C04D
:100F800002F0C0EC08F01A500124116E1B50022030
:100F9000126E1200000ECE6E000ECF6E8282CD80D9
:100FA000B4BCFED7CD90CECF60F0CFCF61F00001C2
:100FB000626B636B8C0E586E000E596E0B0E5A6E80
:100FC000080E5B6E60C05CF061C05DF062C05EF0F8
:100FD00063C05FF049EC08F08C0E026E000E036EE9
:100FE00010EC08F000016351621106E1C50E605D6E
:100FF000090E6159D8A012D081B002D0818001D0F1
:1010000081900D0E0001A16F2D0EA06FD70EE82E5E
:10101000FED7A02FFCD7A12FFAD700D082921200C2
:10102000000E076E000E066E1AD006500224046EE3
:1010300007500320056E04C0F6FF05C0F7FFF86AED
:10104000070EF76403D00800F55005D0F6CFE1FF96
:10105000F7CFE2FFE75037EC09F0064A072A0650BF
:101060000224046E07500320056E04C0F6FF05C07D
:10107000F7FFF86A070EF76403D00800F55005D0B3
:10108000F6CFE1FFF7CFE2FFE7500009D8B4120036
:10109000CCD75C0E0001986F000E996F58C09AF083
:1010A00059C09BF0000E9D6F000E9C6F000E9F6F4D
:1010B000000E9E6F9A0E506E000E516E5AC052F086
:1010C0005BC053F0980E546E000E556E76EC08F02F
:1010D00050C096F051C097F000019C515824D96E31
:1010E0009D515920DA6E000EDF6E120052C056F08C
:1010F00053C057F0000E0001656F000E646F13D0EF
:1011000050C040F051C041F0560E426E000E436E8A
:1011100054C044F055C045F032EC05F04050000199
:1011200064274150652356C0F6FF57C0F7FF0800FB
:10113000F5500009D8A4E4D764C050F065C051F060
:10114000120093908190949282923DEC09F030ECE1
:1011500009F027EC09F01DEC09F0010E026E080EF3
:10116000036E10EC08F094948284CAEC07F09C0E95
:101170000001A26FD70EE82EFED7A22FFCD7F5D71D
:1011800001C005F002C006F002D0014A022A01C0E7
:10119000D9FF02C0DAFFDF50D8A4F7D705C003F0AB
:1011A00006C004F0031E041E034A042A015003244F
:1011B000016E02500420026E1200000E106E000E2E
:1011C0000F6E0BD00EC001F0026A0CC003F00DC010
:1011D00004F02DEC07F00F4A102A0F500A24D96EA4
:1011E00010500B20DA6EDF500E6E0E50D8B4120085
:1011F000E9D714BE05D0145010E11304D8B00DD0B7
:1012000013C015F014C016F0151E161E154A162A26
:1012100015C013F016C014F0120013C013F014C060
:1012200014F0120000EE60F0360EEE6AE806FDE102
:10123000000EF86E0001A1EF08F0AC84330EAF6E23
:10124000AC98AB8EB896949C948EAC8A1200000E2B
:10125000CF6E000ECE6ECD92CD98CD9ACD9012006D
:10126000060EB46EA19CA08CF28CF29E1200016E50
:10127000ACA2FED701C0ADFF12008F0EB56E1200FA
:0212800012005A
:020000040020DA
:08000000FFFFFFFFFFFFFFFF00
:020000040030CA
:0E000000018E191EFF8181FF0FC00FE00F401F
:00000001FF
