:020000040000FA
:040000007CEF0AF097
:10080000002564200A0D00001EC036F01FC037F01E
:1008100020C038F021C039F022C03AF023C03BF0AC
:1008200024C03CF025C03DF03DBE19EF04F01CEFA4
:1008300004F0010E1DEF04F0000E346E356A3450E2
:100840003510D8B426EF04F028EF04F03AEF04F0A6
:100850003D1E3C1E3B1E3A1E391E381E371E366C8E
:10086000000E3722382239223A223B223C223D22F6
:100870003AEF04F0000165BF40EF04F042EF04F0EE
:1008800045EF04F0669345EF04F065BF52EF04F0C6
:10089000655106E16405D8B050EF04F052EF04F062
:1008A00058EF04F0000E316E010E306E5CEF04F074
:1008B00064C030F065C031F062C032F063C033F024
:1008C00034503510D8A467EF04F069EF04F072EFEC
:1008D00004F066A56EEF04F070EF04F077EF04F01B
:1008E00072EF04F03206D8A0330677EF04F0000E62
:1008F0003F6E1F0E3E6E6A0E3E24D96E000E3F20E4
:10090000DA6E000EDF6E03EF05F03E06D8A03F065C
:100910006A0E3E24D96E000E3F20DA6E36C001F01A
:1009200037C002F038C003F039C004F03AC005F017
:100930003BC006F03CC007F03DC008F00A0E096E4F
:10094000000E0A6E000E0B6E000E0C6E000E0D6E89
:10095000000E0E6E000E0F6E000E106E51EC07F0C2
:1009600001C026F002C027F003C028F004C029F01F
:1009700005C02AF006C02BF007C02CF008C02DF0EF
:1009800026C013F028C014F031EC0AF01350300FD9
:10099000DF6E3006D8A031063206D8A0330636C046
:1009A00001F037C002F038C003F039C004F03AC09B
:1009B00005F03BC006F03CC007F03DC008F00A0E51
:1009C000096E000E0A6E000E0B6E000E0C6E000E0D
:1009D0000D6E000E0E6E000E0F6E000E106E79EC96
:1009E00006F001C036F002C037F003C038F004C092
:1009F00039F005C03AF006C03BF007C03CF008C033
:100A00003DF003EF05F03FBE0EEF05F03F5008E16B
:100A10003E04D8A00EEF05F010EF05F047EF05F00B
:100A200036503710381039103A103B103C103D103A
:100A3000D8A41DEF05F01FEF05F085EF04F031BEDF
:100A40002CEF05F0315006E13004D8B02AEF05F064
:100A50002CEF05F085EF04F033BE37EF05F033508F
:100A600008E13204D8A037EF05F039EF05F047EF81
:100A700005F0000166B33FEF05F041EF05F085EFAB
:100A800004F047EF05F047EF05F047EF05F034506D
:100A90003510D8A44EEF05F050EF05F05AEF05F0F1
:100AA000000166A556EF05F058EF05F07CEF05F064
:100AB0005AEF05F03E06D8A03F0634503510D8A4B2
:100AC00064EF05F066EF05F06CEF05F0000E2F6E99
:100AD0002B0E2E6E72EF05F0000E2F6E2D0E2E6E69
:100AE00072EF05F06A0E3E24D96E000E3F20DA6EDA
:100AF0002EC0DFFF7CEF05F01CC011F01DC012F00E
:100B00006A0E3E24136E000E3F20146E32C015F0A4
:100B100033C016F0F1EC08F011C01CF012C01DF04B
:100B200092EF05F0120042C0D9FF43C0DAFFDECFDA
:100B3000F6FFDDCFF7FF0800F550250AD8A4A3EF94
:100B400005F0A5EF05F059EF06F042C0D9FF43C00C
:100B5000DAFFDE2A000EDD22000E0001636F000EB8
:100B6000626F62C066F063C067F06469656942C025
:100B7000D9FF43C0DAFFDECFF6FFDDCFF7FF080075
:100B8000F550640AD8B4C7EF05F0C9EF05F0DDEF02
:100B900005F042C0D9FF43C0DAFFDECFF6FFDDCF5C
:100BA000F7FF0800F550690AD8A4D9EF05F0DBEF8C
:100BB00005F01FEF06F0DDEF05F042C0D9FF43C09E
:100BC000DAFFDE2A000EDD2244C0D9FF45C0DAFF7D
:100BD000DFCF46F0020EDE26DFCF47F0000EDD222B
:100BE00046C0D9FF47C0DAFFDECF48F0DDCF49F07D
:100BF000000E49BEFF0E4A6E4B6E4C6E4D6E4E6E31
:100C00004F6E40C01CF041C01DF048C01EF049C0EE
:100C10001FF04AC020F04BC021F04CC022F04DC064
:100C200023F04EC024F04FC025F004EC04F01CC0AB
:100C300040F01DC041F078EF06F078EF06F042C0BA
:100C4000D9FF43C0DAFFDECFF6FFDDCFF7FF0800A4
:100C5000F550250AD8A42FEF06F031EF06F04AEF41
:100C600006F042C0D9FF43C0DAFFDE2A000EDD22C3
:100C7000000E026E250E016E40C003F041C004F06C
:100C800017EC08F0000E416E010E406E78EF06F092
:100C900078EF06F042C0D9FF43C0DAFFDE2A000E2B
:100CA000DD22000E416E000E406E78EF06F078EF08
:100CB00006F042C0D9FF43C0DAFFDECFF6FFDDCF3A
:100CC000F7FF0800F550016E026A40C003F041C012
:100CD00004F017EC08F042C0D9FF43C0DAFFDE2A67
:100CE000000EDD22000E416E010E406E78EF06F020
:100CF0001200000E126E10BE82EF06F080EF06F0BA
:100D000096EF06F0101E0F1E0E1E0D1E0C1E0B1E63
:100D10000A1E096C000E0A220B220C220D220E2242
:100D20000F221022010E126E96EF06F008BE9DEF04
:100D300006F09BEF06F0B1EF06F0081E071E061E38
:100D4000051E041E031E021E016C000E0222032259
:100D500004220522062207220822010E121AB1EFF0
:100D600006F020EE13F0070EDE6AE806FDE20950F9
:100D70000A100B100C100D100E100F101010D8B41C
:100D8000C4EF06F0C6EF06F024EF07F0010E116E77
:100D9000D6EF06F0D89009360A360B360C360D36EB
:100DA0000E360F361036112AD6EF06F010AEDBEFF6
:100DB00006F0DDEF06F0CAEF06F0E1EF06F0E1EF36
:100DC00006F0D89013361436153616361736183600
:100DD00019361A360950015C0A5002580B50035854
:100DE0000C5004580D5005580E5006580F50075817
:100DF00010500858D8A0FFEF06F001EF07F014EFED
:100E000007F00950015E0A50025A0B50035A0C5069
:100E1000045A0D50055A0E50065A0F50075A1050DA
:100E2000085A138014EF07F0D89010320F320E32A8
:100E30000D320C320B320A320932112EE1EF06F07C
:100E400024EF07F024EF07F01250D8B42AEF07F090
:100E50002CEF07F03EEF07F01A1E191E181E171E82
:100E6000161E151E141E136C000E142215221622B7
:100E70001722182219221A223EEF07F013C001F0A0
:100E800014C002F015C003F016C004F017C005F03E
:100E900018C006F019C007F01AC008F050EF07F0AC
:100EA0001200000E126E08BE5AEF07F058EF07F05E
:100EB0006EEF07F0081E071E061E051E041E031E09
:100EC000021E016C000E02220322042205220622C9
:100ED00007220822010E126E6EEF07F010BE75EFAA
:100EE00007F073EF07F087EF07F0101E0F1E0E1EBE
:100EF0000D1E0C1E0B1E0A1E096C000E0A220B2270
:100F00000C220D220E220F22102287EF07F009502B
:100F10000A100B100C100D100E100F101010D8B47A
:100F200094EF07F096EF07F0EAEF07F0010E116E6D
:100F3000A6EF07F0D89009360A360B360C360D3678
:100F40000E360F361036112AA6EF07F010AEABEFB3
:100F500007F0ADEF07F09AEF07F0B1EF07F0B1EF50
:100F600007F00950015C0A5002580B5003580C500E
:100F700004580D5005580E5006580F500758105081
:100F80000858D8A0C6EF07F0C8EF07F0DAEF07F06F
:100F90000950015E0A50025A0B50035A0C50045A71
:100FA0000D50055A0E50065A0F50075A1050085A45
:100FB000DAEF07F0D89010320F320E320D320C32C9
:100FC0000B320A320932112EB1EF07F0EAEF07F0C7
:100FD000EAEF07F01250D8B4F0EF07F0F2EF07F0A5
:100FE00004EF08F0081E071E061E051E041E031E41
:100FF000021E016C000E0222032204220522062298
:101000000722082204EF08F001C001F002C002F03C
:1010100003C003F004C004F005C005F006C006F0EC
:1010200007C007F008C008F016EF08F012000350E0
:101030000410D8B41EEF08F020EF08F02BEF08F0F2
:1010400003500410D8A427EF08F029EF08F030EF80
:1010500008F02BEF08F001509EEC0AF085EF08F045
:1010600020EE04F00350D9260450DA22DE50DE10C0
:10107000D8B43DEF08F03FEF08F05CEF08F020EE49
:1010800004F00350D9260450DA2210EE02F0035087
:10109000E1260450E222DE50E65CE650800A096E4A
:1010A000DE50800A0958D8B058EF08F05AEF08F01F
:1010B00085EF08F05CEF08F020EE02F00350D9262F
:1010C0000450DA22DECF05F0DDCF06F003C0D9FFF1
:1010D00004C0DAFFDECF07F0DDCF08F005500724AB
:1010E000D96E06500820DA6E01C0DFFF20EE02F054
:1010F0000350D9260450DA22DE2A000EDD2285EFC5
:1011000008F085EF08F085EF08F01200000EC46EBD
:10111000000EC36E010EC26E9480050EC26EC282B6
:1011200092EF08F0C2B297EF08F099EF08F092EF53
:1011300008F09BEF08F0C3CF9EF0060E00019F6FF2
:10114000D8909E339F2FA0EF08F0C450A06FA16BE2
:10115000D890A037A137D890A037A1379E51A025AD
:10116000686F000EA121696F8A0E586E000E596ECD
:10117000010E5A6E080E5B6E68C05CF069C05DF0CF
:101180008FEC09F08A0E026E000E036E0DEC0AF071
:101190000001695107E1C80E685DD8B0D2EF08F0D0
:1011A000D4EF08F0ECEF08F081A0D9EF08F0DCEF05
:1011B00008F08180DDEF08F081900D0E00019F6F37
:1011C0002D0E9E6FD70EE82EFED79E2FFCD79F2F99
:1011D000FAD700D0ECEF08F0010EC26E9490829026
:1011E0001200000166A1F7EF08F0F9EF08F005EF33
:1011F00009F013C00AF014C00BF011C00CF012C0BB
:101200000DF0E7EC09F005EF09F016BE0AEF09F062
:101210000CEF09F012EF09F015C01AF016C01BF020
:1012200016EF09F0000E1B6E000E1A6E000E196EFE
:10123000000E186E2AEF09F0000E026E200E016EED
:1012400011C003F012C004F017EC08F0184A192A74
:101250002AEF09F01A50185C1950800A176E1B50BB
:10126000800A1758D8A037EF09F039EF09F01CEFC2
:1012700009F0000166B13FEF09F041EF09F04DEFD1
:1012800009F013C00AF014C00BF011C00CF012C02A
:101290000DF0E7EC09F04DEF09F013C001F014C0B8
:1012A00002F0BEEC09F01A500124116E1B5002200E
:1012B000126E5BEF09F0120052C056F053C057F0A7
:1012C000000E0001616F000E606F7CEF09F050C0EE
:1012D00040F051C041F0560E426E000E436E54C0B5
:1012E00044F055C045F093EC05F0405000016027F4
:1012F000415061237CEF09F056C0F6FF57C0F7FF5D
:101300000800F5500009D8A488EF09F08AEF09F029
:1013100067EF09F060C050F061C051F012005C0E40
:101320000001966F000E976F58C098F059C099F061
:10133000000E9B6F000E9A6F000E9D6F000E9C6F4B
:10134000980E506E000E516E5AC052F05BC053F0B2
:10135000960E546E000E556E5CEC09F050C094F081
:1013600051C095F000019A515824D96E9B515920D3
:10137000DA6E000EDF6EBDEF09F0120001C005F05D
:1013800002C006F0C8EF09F0014A022AC8EF09F0CE
:1013900001C0D9FF02C0DAFFDF50D8A4D2EF09F0B4
:1013A000D4EF09F0C4EF09F0D6EF09F005C003F05F
:1013B00006C004F0031E041E034A042A015003243D
:1013C000016E02500420026EE6EF09F01200000EDA
:1013D000106E000E0F6EFAEF09F00EC001F0026AF7
:1013E0000CC003F00DC004F017EC08F00F4A102AEF
:1013F000FAEF09F00F500A24D96E10500B20DA6E64
:10140000DF500E6E0E50D8A408EF0AF00AEF0AF073
:10141000EDEF09F00CEF0AF01200000E056E000E61
:10142000046E20EF0AF004500224D96E0550032008
:10143000DA6EDF506DEC0AF0044A052A20EF0AF05C
:1014400004500224D96E05500320DA6EDF50D8A470
:101450002CEF0AF02EEF0AF013EF0AF030EF0AF04B
:10146000120014BE3EEF0AF0145006E11304D8B087
:101470003CEF0AF03EEF0AF04CEF0AF013C015F013
:1014800014C016F0151E161E154A162A15C013F0A4
:1014900016C014F052EF0AF013C013F014C014F089
:1014A00052EF0AF0120089EC0AF094EC0AF09490E2
:1014B0008290939081905DEF0AF086EC08F09C0E8C
:1014C0005E6ED70EE82EFED75E2EFCD700F05DEFE5
:1014D0000AF05DEF0AF000EF00F0016E70EF0AF025
:1014E000ACA275EF0AF077EF0AF070EF0AF079EF2F
:1014F0000AF001C0ADFF120000EE60F0340EEE6A9B
:10150000E806FDE1000EF86E080EF76E000153EFDD
:101510000AF092680A0EC16E3E0EC06E010EC26ED7
:10152000780EE82EFED71200AC849B0EAF6EAC98FE
:0E153000AB8EB896949C948EAC8A120012007A
:020000040020DA
:08000000FFFFFFFFFFFFFFFF00
:020000040030CA
:0E000000018E191EFF8181FF0FC00FE00F401F
:00000001FF
