:020000040000FA
:0400000007EF00F016
:0A0008005E8253ED09F02FEF09F0BE
:10080000004F4D4720504C5A5A5A0025640A0D009B
:0108100000E7
:100812001EC036F01FC037F020C038F021C039F0BA
:1008220022C03AF023C03BF024C03CF025C03DF08A
:100832003DAE02D0010E01D0000E346E356A345046
:100842003510D8B410D03D1E3C1E3B1E3A1E391E38
:10085200381E371E366C000E3722382239223A22D1
:100862003B223C223D22000169AF6A9369BF05D059
:10087200695108E16805D8B005D0000E316E010E4D
:10088200306E04D068C030F069C031F066C032F01A
:1008920067C033F034503510D8A402D06AA503D013
:1008A2003206D8A03306000E3F6E1F0E3E6E6D0E4E
:1008B2003E24D96E000E3F20DA6E000EDF6E7CD031
:1008C2003E06D8A03F066D0E3E24D96E000E3F2094
:1008D200DA6E36C001F037C002F038C003F039C01A
:1008E20004F03AC005F03BC006F03CC007F03DC042
:1008F20008F00A0E096E000E0A6E000E0B6E000E54
:100902000C6E000E0D6E000E0E6E000E0F6E000EBF
:10091200106E9BEC06F001C026F002C027F003C067
:1009220028F004C029F005C02AF006C02BF007C049
:100932002CF008C02DF026C013F028C014F016ECDD
:1009420009F01350300FDF6E3006D8A031063206A0
:10095200D8A0330636C001F037C002F038C003F029
:1009620039C004F03AC005F03BC006F03CC007F0C5
:100972003DC008F00A0E096E000E0A6E000E0B6EE4
:10098200000E0C6E000E0D6E000E0E6E000E0F6E3F
:10099200000E106EF7EC05F001C036F002C037F021
:1009A20003C038F004C039F005C03AF006C03BF08D
:1009B20007C03CF008C03DF03FBE20D03F5003E1ED
:1009C2003E04D8A01BD036503710381039103A10D8
:1009D2003B103C103D10D8A473D731BE05D0315026
:1009E20002E13004D8B06CD733BE08D0335003E1F3
:1009F2003204D8A003D000016AB362D73450351054
:100A0200D8A403D000016AA517D03E06D8A03F069D
:100A120034503510D8A404D0000E2F6E2B0E03D004
:100A2200000E2F6E2D0E2E6E6D0E3E24D96E000E10
:100A32003F20DA6E2EC0DFFF1CC011F01DC012F085
:100A42006D0E3E24136E000E3F20146E32C015F060
:100A520033C016F0D9EC07F011C01CF012C01DF023
:100A6200120042C0D9FF43C0DAFFDECFF6FFDDCF6E
:100A7200F7FF0800F550250AD8A49AD042C0D9FF42
:100A820043C0DAFFDE2A000EDD22000E0001676F8E
:100A9200000E666F66C06AF067C06BF068696969CC
:100AA20042C0D9FF43C0DAFFDECFF6FFDDCFF7FF4A
:100AB2000800F550640AD8B40DD042C0D9FF43C033
:100AC200DAFFDECFF6FFDDCFF7FF0800F550690A47
:100AD200D8A43FD042C0D9FF43C0DAFFDE2A000EBD
:100AE200DD2244C0D9FF45C0DAFFDFCF46F0020E57
:100AF200DE26DFCF47F0000EDD2246C0D9FF47C019
:100B0200DAFFDECF48F0DDCF49F0000E49BEFF0E1E
:100B12004A6E4B6E4C6E4D6E4E6E4F6E40C01CF068
:100B220041C01DF048C01EF049C01FF04AC020F06D
:100B32004BC021F04CC022F04DC023F04EC024F037
:100B42004FC025F009EC04F01CC040F01DC041F07C
:100B5200120042C0D9FF43C0DAFFDECFF6FFDDCF7D
:100B6200F7FF0800F550250AD8A416D042C0D9FFD5
:100B720043C0DAFFDE2A000EDD22000E026E250ED1
:100B8200016E40C003F041C004F089EC07F0000E92
:100B9200416E010E406E120042C0D9FF43C0DAFF1F
:100BA200DE2A000EDD22000E416E000E406E1200A3
:100BB20042C0D9FF43C0DAFFDECFF6FFDDCFF7FF39
:100BC2000800F550016E026A40C003F041C004F013
:100BD20089EC07F042C0D9FF43C0DAFFDE2A000EDB
:100BE200DD22000E416E010E406E1200000E126EEA
:100BF20010AE12D0101E0F1E0E1E0D1E0C1E0B1E4E
:100C02000A1E096C000E0A220B220C220D220E2251
:100C12000F221022010E126E08AE12D0081E071EFD
:100C2200061E051E041E031E021E016C000E022279
:100C3200032204220522062207220822010E121A8A
:100C420020EE13F0070EDE6AE806FDE209500A10F4
:100C52000B100C100D100E100F101010D8B446D03F
:100C6200010E116E0AD0D89009360A360B360C36B0
:100C72000D360E360F361036112A10AEF4D7D89034
:100C820013361436153616361736183619361A36FE
:100C92000950015C0A5002580B5003580C5004587A
:100CA2000D5005580E5006580F500758105008584E
:100CB200D8A011D00950015E0A50025A0B50035AB3
:100CC2000C50045A0D50055A0E50065A0F50075A2E
:100CD2001050085A1380D89010320F320E320D3253
:100CE2000C320B320A320932112EC9D71250D8B443
:100CF20010D01A1E191E181E171E161E151E141E9F
:100D0200136C000E14221522162217221822192201
:100D12001A2213C001F014C002F015C003F016C06D
:100D220004F017C005F018C006F019C007F01AC089
:100D320008F01200000E126E08AE12D0081E071E36
:100D4200061E051E041E031E021E016C000E022258
:100D5200032204220522062207220822010E126E15
:100D620010AE10D0101E0F1E0E1E0D1E0C1E0B1EDE
:100D72000A1E096C000E0A220B220C220D220E22E0
:100D82000F22102209500A100B100C100D100E1019
:100D92000F101010D8B43CD0010E116E0AD0D890AA
:100DA20009360A360B360C360D360E360F3610362D
:100DB200112A10AEF4D70950015C0A5002580B50A8
:100DC20003580C5004580D5005580E5006580F5039
:100DD200075810500858D8A010D00950015E0A5088
:100DE200025A0B50035A0C50045A0D50055A0E5019
:100DF200065A0F50075A1050085AD89010320F3224
:100E02000E320D320C320B320A320932112ED3D786
:100E12001250D8B410D0081E071E061E051E041E4E
:100E2200031E021E016C000E02220322042205226E
:100E320006220722082201C001F002C002F003C00C
:100E420003F004C004F005C005F006C006F007C0B8
:100E520007F008C008F01200000ECE6E000ECF6E32
:100E62008284CD8082A2FED7CD90CECF60F0CFCF4C
:100E720061F00001626B636B6C51D8B415D06CC029
:100E820058F0596A5A6A5B6A59C05BF058C05AF006
:100E9200596A586A58506027595061235A50622340
:100EA2005B506323000E6C6F8D0E976F000E986F70
:100EB2000B0E996F080E9A6F60C09BF061C09CF098
:100EC20062C09DF063C09EF05FEC08F08D0E026E72
:100ED200000E036E26EC08F000016351621106E178
:100EE200DD0E605D050E6159D8A010D081B002D030
:100EF200818001D081900D0E596E2D0E586ED80E44
:100F0200E82EFED7582EFCD7592EFAD7829412001B
:100F120003500410D8B404D003500410D8A404D051
:100F2200015061EC09F0120020EE04F00350D926C2
:100F32000450DA22DE50DE10D8B416D020EE04F0CF
:100F42000350D9260450DA2210EE02F00350E126B3
:100F52000450E222DE50E65CE650800A096EDE5062
:100F6200800A0958D8B0120020EE02F00350D926A8
:100F72000450DA22DECF05F0DDCF06F003C0D9FF40
:100F820004C0DAFFDECF07F0DDCF08F005500724FA
:100F9200D96E06500820DA6E01C0DFFF20EE02F0A3
:100FA2000350D9260450DA22DE2A000EDD22120076
:100FB20000016AA10AD013C00AF014C00BF011C0DC
:100FC2000CF012C00DF0FAEC08F016BE05D015C0F8
:100FD2001AF016C01BF004D0000E1B6E000E1A6E23
:100FE200000E196E000E186E0CD0000E026E200E4E
:100FF200016E11C003F012C004F089EC07F0184A28
:10100200192A1A50185C1950800A176E1B50800A50
:101012001758D8A0EAD700016AB10AD013C00AF063
:1010220014C00BF011C00CF012C00DF0FAEC08F075
:1010320013C001F014C002F0DDEC08F01A500124D4
:10104200116E1B500220126E1200000E076E000E6F
:10105200066E1AD006500224046E07500320056E55
:1010620004C0F6FF05C0F7FFF86A070EF76403D065
:101072000800F55005D0F6CFE1FFF7CFE2FFE750C9
:101082005BEC09F0064A072A06500224046E075058
:101092000320056E04C0F6FF05C0F7FFF86A070ECD
:1010A200F76403D00800F55005D0F6CFE1FFF7CF83
:1010B200E2FFE7500009D8B41200CCD79B0E000122
:1010C200A16F000EA26F97C0A3F098C0A4F0000E0B
:1010D200A66F000EA56F000EA86F000EA76FA30EDD
:1010E200506E000E516E99C052F09AC053F0A10E8C
:1010F200546E000E556E8CEC08F050C09FF051C03B
:10110200A0F00001A5519725D96EA6519821DA6E5B
:10111200000EDF6E120052C056F053C057F0000EA0
:101122000001656F000E646F13D050C040F051C0D3
:1011320041F0560E426E000E436E54C044F055C04C
:1011420045F032EC05F04050000164274150652320
:1011520056C0F6FF57C0F7FF0800F5500009D8A4A3
:10116200E4D764C050F065C051F0120093908190B2
:101172009494829494823CEC09F049EC09F01F0E9D
:101182005D6E710E5C6E1E0EE82EFED75C2EFCD7D5
:101192005D2EFAD700D0010E026E080E036E26EC09
:1011A20008F02DEC07F09C0E5C6ED70EE82EFED7F1
:1011B2005C2EFCD700F0F5D701C005F002C006F0A6
:1011C20002D0014A022A01C0D9FF02C0DAFFDF5071
:1011D200D8A4F7D705C003F006C004F0031E041E0E
:1011E200034A042A01500324016E02500420026EB5
:1011F2001200000E106E000E0F6E0BD00EC001F02A
:10120200026A0CC003F00DC004F089EC07F00F4A2B
:10121200102A0F500A24D96E10500B20DA6EDF50BC
:101222000E6E0E50D8B41200E9D714BE05D0145079
:1012320010E11304D8B00DD013C015F014C016F08D
:10124200151E161E154A162A15C013F016C014F0E4
:10125200120013C013F014C014F0120000EE60F07C
:10126200370EEE6AE806FDE15E905E92000EF86EC1
:101272000001B7EF08F0000ECF6E000ECE6ECD92D9
:10128200CD98CD9ACD909D809E90F28CF28E1200D8
:10129200AC84330EAF6EAC98AB8EB896949C948EA1
:1012A200AC8A120006009EA003D000016C2B9E9017
:1012B2005E921100016EACA2FED701C0ADFF12001A
:0212C200120018
:020000040020DA
:08000000FFFFFFFFFFFFFFFF00
:020000040030CA
:0E000000018E191EFF8181FF0FC00FE00F401F
:00000001FF
